{
  "contractName": "Flappy",
  "abi": [
    {
      "constant": true,
      "inputs": [
        {
          "name": "",
          "type": "uint256"
        }
      ],
      "name": "price",
      "outputs": [
        {
          "name": "",
          "type": "uint256"
        }
      ],
      "payable": false,
      "stateMutability": "view",
      "type": "function",
      "signature": "0x26a49e37"
    },
    {
      "constant": true,
      "inputs": [],
      "name": "goldScore",
      "outputs": [
        {
          "name": "",
          "type": "uint256"
        }
      ],
      "payable": false,
      "stateMutability": "view",
      "type": "function",
      "signature": "0x393a0b36"
    },
    {
      "constant": true,
      "inputs": [],
      "name": "newRecordPrize",
      "outputs": [
        {
          "name": "",
          "type": "uint256"
        }
      ],
      "payable": false,
      "stateMutability": "view",
      "type": "function",
      "signature": "0x40fcf232"
    },
    {
      "constant": true,
      "inputs": [
        {
          "name": "",
          "type": "address"
        }
      ],
      "name": "ownedBirds",
      "outputs": [
        {
          "name": "",
          "type": "string"
        }
      ],
      "payable": false,
      "stateMutability": "view",
      "type": "function",
      "signature": "0x44eb4847"
    },
    {
      "constant": true,
      "inputs": [],
      "name": "owner",
      "outputs": [
        {
          "name": "",
          "type": "address"
        }
      ],
      "payable": false,
      "stateMutability": "view",
      "type": "function",
      "signature": "0x8da5cb5b"
    },
    {
      "constant": true,
      "inputs": [],
      "name": "goldPrize",
      "outputs": [
        {
          "name": "",
          "type": "uint256"
        }
      ],
      "payable": false,
      "stateMutability": "view",
      "type": "function",
      "signature": "0x9d2963a7"
    },
    {
      "constant": true,
      "inputs": [],
      "name": "silverScore",
      "outputs": [
        {
          "name": "",
          "type": "uint256"
        }
      ],
      "payable": false,
      "stateMutability": "view",
      "type": "function",
      "signature": "0xa03ca2c4"
    },
    {
      "constant": true,
      "inputs": [
        {
          "name": "",
          "type": "address"
        }
      ],
      "name": "isPlaying",
      "outputs": [
        {
          "name": "",
          "type": "bool"
        }
      ],
      "payable": false,
      "stateMutability": "view",
      "type": "function",
      "signature": "0xb7665613"
    },
    {
      "constant": true,
      "inputs": [],
      "name": "fee",
      "outputs": [
        {
          "name": "",
          "type": "uint256"
        }
      ],
      "payable": false,
      "stateMutability": "view",
      "type": "function",
      "signature": "0xddca3f43"
    },
    {
      "constant": true,
      "inputs": [],
      "name": "silverPrize",
      "outputs": [
        {
          "name": "",
          "type": "uint256"
        }
      ],
      "payable": false,
      "stateMutability": "view",
      "type": "function",
      "signature": "0xe359942e"
    },
    {
      "inputs": [],
      "payable": false,
      "stateMutability": "nonpayable",
      "type": "constructor",
      "signature": "constructor"
    },
    {
      "constant": false,
      "inputs": [
        {
          "name": "prize",
          "type": "uint256"
        }
      ],
      "name": "setSilverPrize",
      "outputs": [],
      "payable": false,
      "stateMutability": "nonpayable",
      "type": "function",
      "signature": "0xac234bda"
    },
    {
      "constant": false,
      "inputs": [
        {
          "name": "prize",
          "type": "uint256"
        }
      ],
      "name": "setGoldPrize",
      "outputs": [],
      "payable": false,
      "stateMutability": "nonpayable",
      "type": "function",
      "signature": "0x216efe3f"
    },
    {
      "constant": false,
      "inputs": [
        {
          "name": "prize",
          "type": "uint256"
        }
      ],
      "name": "setNewRecordPrize",
      "outputs": [],
      "payable": false,
      "stateMutability": "nonpayable",
      "type": "function",
      "signature": "0xe0b4df46"
    },
    {
      "constant": false,
      "inputs": [],
      "name": "play",
      "outputs": [],
      "payable": true,
      "stateMutability": "payable",
      "type": "function",
      "signature": "0x93e84cd9"
    },
    {
      "constant": false,
      "inputs": [
        {
          "name": "score",
          "type": "uint256"
        }
      ],
      "name": "endGame",
      "outputs": [],
      "payable": false,
      "stateMutability": "nonpayable",
      "type": "function",
      "signature": "0xd0399bb8"
    },
    {
      "constant": false,
      "inputs": [],
      "name": "quit",
      "outputs": [],
      "payable": false,
      "stateMutability": "nonpayable",
      "type": "function",
      "signature": "0xfc2b8cc3"
    },
    {
      "constant": false,
      "inputs": [
        {
          "name": "birdId",
          "type": "uint256"
        }
      ],
      "name": "purchase",
      "outputs": [],
      "payable": true,
      "stateMutability": "payable",
      "type": "function",
      "signature": "0xefef39a1"
    },
    {
      "constant": false,
      "inputs": [
        {
          "name": "amount",
          "type": "uint256"
        }
      ],
      "name": "withdrawal",
      "outputs": [],
      "payable": false,
      "stateMutability": "nonpayable",
      "type": "function",
      "signature": "0x835fc6ca"
    },
    {
      "constant": false,
      "inputs": [],
      "name": "destroy",
      "outputs": [],
      "payable": false,
      "stateMutability": "nonpayable",
      "type": "function",
      "signature": "0x83197ef0"
    }
  ],
  "bytecode": "0x6080604052600a600055602860015566038d7ea4c6800060025566038d7ea4c680006003556611c37937e08000600455662386f26fc1000060055560c060405190810160405280600067ffffffffffffffff168152602001662386f26fc1000067ffffffffffffffff168152602001666a94d74f43000067ffffffffffffffff168152602001668e1bc9bf04000067ffffffffffffffff16815260200166b1a2bc2ec5000067ffffffffffffffff168152602001670de0b6b3a764000067ffffffffffffffff1681525060079060066100d992919061012d565b503480156100e657600080fd5b5033600660006101000a81548173ffffffffffffffffffffffffffffffffffffffff021916908373ffffffffffffffffffffffffffffffffffffffff1602179055506101ab565b828054828255906000526020600020908101928215610175579160200282015b82811115610174578251829067ffffffffffffffff1690559160200191906001019061014d565b5b5090506101829190610186565b5090565b6101a891905b808211156101a457600081600090555060010161018c565b5090565b90565b61119f806101ba6000396000f3fe608060405260043610610107576000357c0100000000000000000000000000000000000000000000000000000000900463ffffffff168063216efe3f1461010c57806326a49e3714610147578063393a0b361461019657806340fcf232146101c157806344eb4847146101ec57806383197ef0146102b6578063835fc6ca146102cd5780638da5cb5b1461030857806393e84cd91461035f5780639d2963a714610369578063a03ca2c414610394578063ac234bda146103bf578063b7665613146103fa578063d0399bb814610463578063ddca3f431461049e578063e0b4df46146104c9578063e359942e14610504578063efef39a11461052f578063fc2b8cc31461055d575b600080fd5b34801561011857600080fd5b506101456004803603602081101561012f57600080fd5b8101908080359060200190929190505050610574565b005b34801561015357600080fd5b506101806004803603602081101561016a57600080fd5b810190808035906020019092919050505061057e565b6040518082815260200191505060405180910390f35b3480156101a257600080fd5b506101ab6105a1565b6040518082815260200191505060405180910390f35b3480156101cd57600080fd5b506101d66105a7565b6040518082815260200191505060405180910390f35b3480156101f857600080fd5b5061023b6004803603602081101561020f57600080fd5b81019080803573ffffffffffffffffffffffffffffffffffffffff1690602001909291905050506105ad565b6040518080602001828103825283818151815260200191508051906020019080838360005b8381101561027b578082015181840152602081019050610260565b50505050905090810190601f1680156102a85780820380516001836020036101000a031916815260200191505b509250505060405180910390f35b3480156102c257600080fd5b506102cb61065d565b005b3480156102d957600080fd5b50610306600480360360208110156102f057600080fd5b8101908080359060200190929190505050610761565b005b34801561031457600080fd5b5061031d610919565b604051808273ffffffffffffffffffffffffffffffffffffffff1673ffffffffffffffffffffffffffffffffffffffff16815260200191505060405180910390f35b61036761093f565b005b34801561037557600080fd5b5061037e610a69565b6040518082815260200191505060405180910390f35b3480156103a057600080fd5b506103a9610a6f565b6040518082815260200191505060405180910390f35b3480156103cb57600080fd5b506103f8600480360360208110156103e257600080fd5b8101908080359060200190929190505050610a75565b005b34801561040657600080fd5b506104496004803603602081101561041d57600080fd5b81019080803573ffffffffffffffffffffffffffffffffffffffff169060200190929190505050610a7f565b604051808215151515815260200191505060405180910390f35b34801561046f57600080fd5b5061049c6004803603602081101561048657600080fd5b8101908080359060200190929190505050610a9f565b005b3480156104aa57600080fd5b506104b3610c6a565b6040518082815260200191505060405180910390f35b3480156104d557600080fd5b50610502600480360360208110156104ec57600080fd5b8101908080359060200190929190505050610c70565b005b34801561051057600080fd5b50610519610c7a565b6040518082815260200191505060405180910390f35b61055b6004803603602081101561054557600080fd5b8101908080359060200190929190505050610c80565b005b34801561056957600080fd5b50610572610f14565b005b8060048190555050565b60078181548110151561058d57fe5b906000526020600020016000915090505481565b60015481565b60055481565b60096020528060005260406000206000915090508054600181600116156101000203166002900480601f0160208091040260200160405190810160405280929190818152602001828054600181600116156101000203166002900480156106555780601f1061062a57610100808354040283529160200191610655565b820191906000526020600020905b81548152906001019060200180831161063857829003601f168201915b505050505081565b600660009054906101000a900473ffffffffffffffffffffffffffffffffffffffff1673ffffffffffffffffffffffffffffffffffffffff163373ffffffffffffffffffffffffffffffffffffffff16141515610748576040517f08c379a00000000000000000000000000000000000000000000000000000000081526004018080602001828103825260238152602001807f6f6e6c7920636f6e7472616374206f776e65722063616e207065666f726d207481526020017f686973000000000000000000000000000000000000000000000000000000000081525060400191505060405180910390fd5b3373ffffffffffffffffffffffffffffffffffffffff16ff5b600660009054906101000a900473ffffffffffffffffffffffffffffffffffffffff1673ffffffffffffffffffffffffffffffffffffffff163373ffffffffffffffffffffffffffffffffffffffff1614151561084c576040517f08c379a00000000000000000000000000000000000000000000000000000000081526004018080602001828103825260238152602001807f6f6e6c7920636f6e7472616374206f776e65722063616e207065666f726d207481526020017f686973000000000000000000000000000000000000000000000000000000000081525060400191505060405180910390fd5b3073ffffffffffffffffffffffffffffffffffffffff163181101515610900576040517f08c379a00000000000000000000000000000000000000000000000000000000081526004018080602001828103825260298152602001807f616d6f756e74206d757374206265206c657373207468616e20636f6e7472616381526020017f742062616c616e6365000000000000000000000000000000000000000000000081525060400191505060405180910390fd5b3373ffffffffffffffffffffffffffffffffffffffff16ff5b600660009054906101000a900473ffffffffffffffffffffffffffffffffffffffff1681565b60025434101515156109b9576040517f08c379a00000000000000000000000000000000000000000000000000000000081526004018080602001828103825260188152602001807f796f75206d7573742070617920666f7220706c6179696e67000000000000000081525060200191505060405180910390fd5b600254341115610a0f573373ffffffffffffffffffffffffffffffffffffffff166108fc60025434039081150290604051600060405180830381858888f19350505050158015610a0d573d6000803e3d6000fd5b505b6001600860003373ffffffffffffffffffffffffffffffffffffffff1673ffffffffffffffffffffffffffffffffffffffff16815260200190815260200160002060006101000a81548160ff021916908315150217905550565b60045481565b60005481565b8060038190555050565b60086020528060005260406000206000915054906101000a900460ff1681565b600860003373ffffffffffffffffffffffffffffffffffffffff1673ffffffffffffffffffffffffffffffffffffffff16815260200190815260200160002060009054906101000a900460ff161515610b60576040517f08c379a00000000000000000000000000000000000000000000000000000000081526004018080602001828103825260168152602001807f706c61796572206d75737420626520696e2067616d650000000000000000000081525060200191505060405180910390fd5b6000600860003373ffffffffffffffffffffffffffffffffffffffff1673ffffffffffffffffffffffffffffffffffffffff16815260200190815260200160002060006101000a81548160ff02191690831515021790555060015481101515610c11573373ffffffffffffffffffffffffffffffffffffffff166108fc6004549081150290604051600060405180830381858888f19350505050158015610c0b573d6000803e3d6000fd5b50610c67565b60005481101515610c66573373ffffffffffffffffffffffffffffffffffffffff166108fc6003549081150290604051600060405180830381858888f19350505050158015610c64573d6000803e3d6000fd5b505b5b50565b60025481565b8060058190555050565b60035481565b600781815481101515610c8f57fe5b90600052602060002001543410151515610d11576040517f08c379a00000000000000000000000000000000000000000000000000000000081526004018080602001828103825260138152602001807f76616c7565206973206e6f7420656e6f7567680000000000000000000000000081525060200191505060405180910390fd5b6060600960003373ffffffffffffffffffffffffffffffffffffffff1673ffffffffffffffffffffffffffffffffffffffff1681526020019081526020016000208054600181600116156101000203166002900480601f016020809104026020016040519081016040528092919081815260200182805460018160011615610100020316600290048015610de65780601f10610dbb57610100808354040283529160200191610de6565b820191906000526020600020905b815481529060010190602001808311610dc957829003601f168201915b505050505090506060610df883610f6e565b905081816040516020018083805190602001908083835b602083101515610e345780518252602082019150602081019050602083039250610e0f565b6001836020036101000a03801982511681845116808217855250505050505090500182805190602001908083835b602083101515610e875780518252602082019150602081019050602083039250610e62565b6001836020036101000a03801982511681845116808217855250505050505090500192505050604051602081830303815290604052600960003373ffffffffffffffffffffffffffffffffffffffff1673ffffffffffffffffffffffffffffffffffffffff1681526020019081526020016000209080519060200190610f0e9291906110ce565b50505050565b6000600860003373ffffffffffffffffffffffffffffffffffffffff1673ffffffffffffffffffffffffffffffffffffffff16815260200190815260200160002060006101000a81548160ff021916908315150217905550565b606060008290506000811415610fbc576040805190810160405280600181526020017f30000000000000000000000000000000000000000000000000000000000000008152509150506110c9565b600081905060005b600082141515610fea578080600101915050600a82811515610fe257fe5b049150610fc4565b6060816040519080825280601f01601f19166020018201604052801561101f5781602001600182028038833980820191505090505b50905060006001830390505b6000851415156110c057600a8581151561104157fe5b066030017f01000000000000000000000000000000000000000000000000000000000000000282828060019003935081518110151561107c57fe5b9060200101907effffffffffffffffffffffffffffffffffffffffffffffffffffffffffffff1916908160001a905350600a858115156110b857fe5b04945061102b565b81955050505050505b919050565b828054600181600116156101000203166002900490600052602060002090601f016020900481019282601f1061110f57805160ff191683800117855561113d565b8280016001018555821561113d579182015b8281111561113c578251825591602001919060010190611121565b5b50905061114a919061114e565b5090565b61117091905b8082111561116c576000816000905550600101611154565b5090565b9056fea165627a7a72305820323c4550dbfb7e9b53a47b5576784270a050338a832cce6f1d70fc4334fd84730029",
  "source": "pragma solidity 0.5.0;\n\ncontract Flappy {\n    uint public silverScore = 10;\n    uint public goldScore = 40;\n    uint public fee = 1 finney;\n    uint public silverPrize = 1 finney;\n    uint public goldPrize = 5 finney;\n    uint public newRecordPrize = 10 finney;\n    address public owner;\n\n    uint[] public price = [0, 10 finney, 30 finney, 40 finney, 50 finney, 1 ether];\n    mapping (address => bool) public isPlaying;\n\n    mapping (address => string) public ownedBirds;\n\n    modifier onlyOwner() {\n        require(msg.sender == owner, 'only contract owner can peform this');\n        _;\n    }\n\n    constructor () public {\n        owner = msg.sender;\n    }\n\n    function setSilverPrize(uint prize)\n        public\n    {\n        silverPrize = prize;\n    }\n\n    function setGoldPrize(uint prize)\n        public\n    {\n        goldPrize = prize;\n    }\n\n    function setNewRecordPrize(uint prize)\n        public\n    {\n        newRecordPrize = prize;\n    }\n\n    function play()\n        public\n        payable\n    {\n        // require(!isPlaying[msg.sender], 'player must not in game');\n        require(msg.value >= fee, 'you must pay for playing');\n        if (msg.value > fee) {\n            msg.sender.transfer(msg.value - fee);\n        }\n        isPlaying[msg.sender] = true;\n    }\n\n    function endGame(uint score)\n        public\n    {\n        require(isPlaying[msg.sender], 'player must be in game');\n        isPlaying[msg.sender] = false;\n        if (score >= goldScore) {\n            msg.sender.transfer(goldPrize);\n        } else if (score >= silverScore) {\n            msg.sender.transfer(silverPrize);\n        }\n    }\n\n    function quit()\n        public\n    {\n        isPlaying[msg.sender] = false;\n    }\n\n    function purchase(uint birdId)\n        public\n        payable\n    {\n        require(msg.value >= price[birdId], 'value is not enough');\n        string memory currentBirds = ownedBirds[msg.sender];\n        string memory birdIdStr = uintToString(birdId);\n        ownedBirds[msg.sender] = string(abi.encodePacked(currentBirds, birdIdStr));\n    }\n\n    function uintToString(uint u)\n        internal\n        pure\n        returns (string memory _uintAsString)\n    {\n        uint _i = u;\n        if (_i == 0) {\n            return \"0\";\n        }\n        uint j = _i;\n        uint len;\n        while (j != 0) {\n            len++;\n            j /= 10;\n        }\n        bytes memory bstr = new bytes(len);\n        uint k = len - 1;\n        while (_i != 0) {\n            bstr[k--] = byte(uint8(48 + _i % 10));\n            _i /= 10;\n        }\n        return string(bstr);\n    }\n\n    function withdrawal(uint amount)\n        public\n        onlyOwner\n    {\n        require(amount < address(this).balance, 'amount must be less than contract balance');\n        selfdestruct(msg.sender);\n    }\n\n    function destroy()\n        public\n        onlyOwner\n    {\n        selfdestruct(msg.sender);\n    }\n}",
  "sourcePath": "/Users/dotrungkien/hackathon/Etherbird/contracts/contracts/Flappy.sol",
  "compiler": {
    "name": "solc",
    "version": "0.5.0+commit.1d4f565a.Emscripten.clang"
  },
  "schemaVersion": "3.0.2",
  "updatedAt": "2019-11-20T15:42:08.210Z",
  "devdoc": {
    "methods": {}
  },
  "userdoc": {
    "methods": {}
  }
}