{
  "contractName": "Flappy2",
  "abi": [
    {
      "constant": true,
      "inputs": [
        {
          "name": "",
          "type": "uint256"
        }
      ],
      "name": "price",
      "outputs": [
        {
          "name": "",
          "type": "uint256"
        }
      ],
      "payable": false,
      "stateMutability": "view",
      "type": "function",
      "signature": "0x26a49e37"
    },
    {
      "constant": true,
      "inputs": [
        {
          "name": "",
          "type": "address"
        }
      ],
      "name": "usingBird",
      "outputs": [
        {
          "name": "",
          "type": "uint256"
        }
      ],
      "payable": false,
      "stateMutability": "view",
      "type": "function",
      "signature": "0x35c5b664"
    },
    {
      "constant": true,
      "inputs": [],
      "name": "goldScore",
      "outputs": [
        {
          "name": "",
          "type": "uint256"
        }
      ],
      "payable": false,
      "stateMutability": "view",
      "type": "function",
      "signature": "0x393a0b36"
    },
    {
      "constant": true,
      "inputs": [],
      "name": "newRecordPrize",
      "outputs": [
        {
          "name": "",
          "type": "uint256"
        }
      ],
      "payable": false,
      "stateMutability": "view",
      "type": "function",
      "signature": "0x40fcf232"
    },
    {
      "constant": true,
      "inputs": [],
      "name": "owner",
      "outputs": [
        {
          "name": "",
          "type": "address"
        }
      ],
      "payable": false,
      "stateMutability": "view",
      "type": "function",
      "signature": "0x8da5cb5b"
    },
    {
      "constant": true,
      "inputs": [],
      "name": "goldPrize",
      "outputs": [
        {
          "name": "",
          "type": "uint256"
        }
      ],
      "payable": false,
      "stateMutability": "view",
      "type": "function",
      "signature": "0x9d2963a7"
    },
    {
      "constant": true,
      "inputs": [],
      "name": "silverScore",
      "outputs": [
        {
          "name": "",
          "type": "uint256"
        }
      ],
      "payable": false,
      "stateMutability": "view",
      "type": "function",
      "signature": "0xa03ca2c4"
    },
    {
      "constant": true,
      "inputs": [
        {
          "name": "",
          "type": "address"
        }
      ],
      "name": "isPlaying",
      "outputs": [
        {
          "name": "",
          "type": "bool"
        }
      ],
      "payable": false,
      "stateMutability": "view",
      "type": "function",
      "signature": "0xb7665613"
    },
    {
      "constant": true,
      "inputs": [
        {
          "name": "",
          "type": "address"
        },
        {
          "name": "",
          "type": "uint256"
        }
      ],
      "name": "ownedBirds",
      "outputs": [
        {
          "name": "",
          "type": "bool"
        }
      ],
      "payable": false,
      "stateMutability": "view",
      "type": "function",
      "signature": "0xc1774252"
    },
    {
      "constant": true,
      "inputs": [],
      "name": "fee",
      "outputs": [
        {
          "name": "",
          "type": "uint256"
        }
      ],
      "payable": false,
      "stateMutability": "view",
      "type": "function",
      "signature": "0xddca3f43"
    },
    {
      "constant": true,
      "inputs": [],
      "name": "silverPrize",
      "outputs": [
        {
          "name": "",
          "type": "uint256"
        }
      ],
      "payable": false,
      "stateMutability": "view",
      "type": "function",
      "signature": "0xe359942e"
    },
    {
      "inputs": [],
      "payable": false,
      "stateMutability": "nonpayable",
      "type": "constructor",
      "signature": "constructor"
    },
    {
      "constant": false,
      "inputs": [
        {
          "name": "prize",
          "type": "uint256"
        }
      ],
      "name": "setSilverPrize",
      "outputs": [],
      "payable": false,
      "stateMutability": "nonpayable",
      "type": "function",
      "signature": "0xac234bda"
    },
    {
      "constant": false,
      "inputs": [
        {
          "name": "prize",
          "type": "uint256"
        }
      ],
      "name": "setGoldPrize",
      "outputs": [],
      "payable": false,
      "stateMutability": "nonpayable",
      "type": "function",
      "signature": "0x216efe3f"
    },
    {
      "constant": false,
      "inputs": [
        {
          "name": "prize",
          "type": "uint256"
        }
      ],
      "name": "setNewRecordPrize",
      "outputs": [],
      "payable": false,
      "stateMutability": "nonpayable",
      "type": "function",
      "signature": "0xe0b4df46"
    },
    {
      "constant": true,
      "inputs": [],
      "name": "getUsingBird",
      "outputs": [
        {
          "name": "",
          "type": "uint256"
        }
      ],
      "payable": false,
      "stateMutability": "view",
      "type": "function",
      "signature": "0x1cf31d67"
    },
    {
      "constant": false,
      "inputs": [
        {
          "name": "birdId",
          "type": "uint256"
        }
      ],
      "name": "useBird",
      "outputs": [],
      "payable": false,
      "stateMutability": "nonpayable",
      "type": "function",
      "signature": "0x0276133d"
    },
    {
      "constant": false,
      "inputs": [],
      "name": "play",
      "outputs": [],
      "payable": true,
      "stateMutability": "payable",
      "type": "function",
      "signature": "0x93e84cd9"
    },
    {
      "constant": false,
      "inputs": [
        {
          "name": "score",
          "type": "uint256"
        }
      ],
      "name": "endGame",
      "outputs": [],
      "payable": false,
      "stateMutability": "nonpayable",
      "type": "function",
      "signature": "0xd0399bb8"
    },
    {
      "constant": false,
      "inputs": [],
      "name": "quit",
      "outputs": [],
      "payable": false,
      "stateMutability": "nonpayable",
      "type": "function",
      "signature": "0xfc2b8cc3"
    },
    {
      "constant": false,
      "inputs": [
        {
          "name": "birdId",
          "type": "uint256"
        }
      ],
      "name": "purchase",
      "outputs": [],
      "payable": true,
      "stateMutability": "payable",
      "type": "function",
      "signature": "0xefef39a1"
    },
    {
      "constant": true,
      "inputs": [],
      "name": "getMyBirds",
      "outputs": [
        {
          "name": "",
          "type": "bool"
        },
        {
          "name": "",
          "type": "bool"
        },
        {
          "name": "",
          "type": "bool"
        },
        {
          "name": "",
          "type": "bool"
        },
        {
          "name": "",
          "type": "bool"
        },
        {
          "name": "",
          "type": "bool"
        }
      ],
      "payable": false,
      "stateMutability": "view",
      "type": "function",
      "signature": "0x9187540d"
    },
    {
      "constant": false,
      "inputs": [
        {
          "name": "amount",
          "type": "uint256"
        }
      ],
      "name": "withdrawal",
      "outputs": [],
      "payable": false,
      "stateMutability": "nonpayable",
      "type": "function",
      "signature": "0x835fc6ca"
    },
    {
      "constant": false,
      "inputs": [],
      "name": "destroy",
      "outputs": [],
      "payable": false,
      "stateMutability": "nonpayable",
      "type": "function",
      "signature": "0x83197ef0"
    }
  ],
  "bytecode": "0x6080604052600a600055602860015566038d7ea4c6800060025566038d7ea4c680006003556611c37937e08000600455662386f26fc1000060055560c060405190810160405280600067ffffffffffffffff168152602001662386f26fc1000067ffffffffffffffff168152602001666a94d74f43000067ffffffffffffffff168152602001668e1bc9bf04000067ffffffffffffffff16815260200166b1a2bc2ec5000067ffffffffffffffff168152602001670de0b6b3a764000067ffffffffffffffff1681525060079060066100d992919061012d565b503480156100e657600080fd5b5033600660006101000a81548173ffffffffffffffffffffffffffffffffffffffff021916908373ffffffffffffffffffffffffffffffffffffffff1602179055506101ab565b828054828255906000526020600020908101928215610175579160200282015b82811115610174578251829067ffffffffffffffff1690559160200191906001019061014d565b5b5090506101829190610186565b5090565b6101a891905b808211156101a457600081600090555060010161018c565b5090565b90565b6112fd80620001bb6000396000f3fe608060405260043610610133576000357c0100000000000000000000000000000000000000000000000000000000900463ffffffff1680630276133d146101385780631cf31d6714610173578063216efe3f1461019e57806326a49e37146101d957806335c5b66414610228578063393a0b361461028d57806340fcf232146102b857806383197ef0146102e3578063835fc6ca146102fa5780638da5cb5b146103355780639187540d1461038c57806393e84cd9146103f25780639d2963a7146103fc578063a03ca2c414610427578063ac234bda14610452578063b76656131461048d578063c1774252146104f6578063d0399bb814610569578063ddca3f43146105a4578063e0b4df46146105cf578063e359942e1461060a578063efef39a114610635578063fc2b8cc314610663575b600080fd5b34801561014457600080fd5b506101716004803603602081101561015b57600080fd5b810190808035906020019092919050505061067a565b005b34801561017f57600080fd5b5061018861081a565b6040518082815260200191505060405180910390f35b3480156101aa57600080fd5b506101d7600480360360208110156101c157600080fd5b8101908080359060200190929190505050610861565b005b3480156101e557600080fd5b50610212600480360360208110156101fc57600080fd5b810190808035906020019092919050505061086b565b6040518082815260200191505060405180910390f35b34801561023457600080fd5b506102776004803603602081101561024b57600080fd5b81019080803573ffffffffffffffffffffffffffffffffffffffff16906020019092919050505061088e565b6040518082815260200191505060405180910390f35b34801561029957600080fd5b506102a26108a6565b6040518082815260200191505060405180910390f35b3480156102c457600080fd5b506102cd6108ac565b6040518082815260200191505060405180910390f35b3480156102ef57600080fd5b506102f86108b2565b005b34801561030657600080fd5b506103336004803603602081101561031d57600080fd5b81019080803590602001909291905050506109b6565b005b34801561034157600080fd5b5061034a610b6e565b604051808273ffffffffffffffffffffffffffffffffffffffff1673ffffffffffffffffffffffffffffffffffffffff16815260200191505060405180910390f35b34801561039857600080fd5b506103a1610b94565b60405180871515151581526020018615151515815260200185151515158152602001841515151581526020018315151515815260200182151515158152602001965050505050505060405180910390f35b6103fa610d8e565b005b34801561040857600080fd5b50610411610eb8565b6040518082815260200191505060405180910390f35b34801561043357600080fd5b5061043c610ebe565b6040518082815260200191505060405180910390f35b34801561045e57600080fd5b5061048b6004803603602081101561047557600080fd5b8101908080359060200190929190505050610ec4565b005b34801561049957600080fd5b506104dc600480360360208110156104b057600080fd5b81019080803573ffffffffffffffffffffffffffffffffffffffff169060200190929190505050610ece565b604051808215151515815260200191505060405180910390f35b34801561050257600080fd5b5061054f6004803603604081101561051957600080fd5b81019080803573ffffffffffffffffffffffffffffffffffffffff16906020019092919080359060200190929190505050610eee565b604051808215151515815260200191505060405180910390f35b34801561057557600080fd5b506105a26004803603602081101561058c57600080fd5b8101908080359060200190929190505050610f1d565b005b3480156105b057600080fd5b506105b96110e8565b6040518082815260200191505060405180910390f35b3480156105db57600080fd5b50610608600480360360208110156105f257600080fd5b81019080803590602001909291905050506110ee565b005b34801561061657600080fd5b5061061f6110f8565b6040518082815260200191505060405180910390f35b6106616004803603602081101561064b57600080fd5b81019080803590602001909291905050506110fe565b005b34801561066f57600080fd5b50610678611277565b005b600780549050811015156106f6576040517f08c379a000000000000000000000000000000000000000000000000000000000815260040180806020018281038252600e8152602001807f696e76616c69642062697264496400000000000000000000000000000000000081525060200191505060405180910390fd5b600960003373ffffffffffffffffffffffffffffffffffffffff1673ffffffffffffffffffffffffffffffffffffffff168152602001908152602001600020600082815260200190815260200160002060009054906101000a900460ff168061075f5750600081145b15156107d3576040517f08c379a00000000000000000000000000000000000000000000000000000000081526004018080602001828103825260168152602001807f746869732062697264206973206e6f7420796f7572730000000000000000000081525060200191505060405180910390fd5b80600a60003373ffffffffffffffffffffffffffffffffffffffff1673ffffffffffffffffffffffffffffffffffffffff1681526020019081526020016000208190555050565b6000600a60003373ffffffffffffffffffffffffffffffffffffffff1673ffffffffffffffffffffffffffffffffffffffff16815260200190815260200160002054905090565b8060048190555050565b60078181548110151561087a57fe5b906000526020600020016000915090505481565b600a6020528060005260406000206000915090505481565b60015481565b60055481565b600660009054906101000a900473ffffffffffffffffffffffffffffffffffffffff1673ffffffffffffffffffffffffffffffffffffffff163373ffffffffffffffffffffffffffffffffffffffff1614151561099d576040517f08c379a00000000000000000000000000000000000000000000000000000000081526004018080602001828103825260238152602001807f6f6e6c7920636f6e7472616374206f776e65722063616e207065666f726d207481526020017f686973000000000000000000000000000000000000000000000000000000000081525060400191505060405180910390fd5b3373ffffffffffffffffffffffffffffffffffffffff16ff5b600660009054906101000a900473ffffffffffffffffffffffffffffffffffffffff1673ffffffffffffffffffffffffffffffffffffffff163373ffffffffffffffffffffffffffffffffffffffff16141515610aa1576040517f08c379a00000000000000000000000000000000000000000000000000000000081526004018080602001828103825260238152602001807f6f6e6c7920636f6e7472616374206f776e65722063616e207065666f726d207481526020017f686973000000000000000000000000000000000000000000000000000000000081525060400191505060405180910390fd5b3073ffffffffffffffffffffffffffffffffffffffff163181101515610b55576040517f08c379a00000000000000000000000000000000000000000000000000000000081526004018080602001828103825260298152602001807f616d6f756e74206d757374206265206c657373207468616e20636f6e7472616381526020017f742062616c616e6365000000000000000000000000000000000000000000000081525060400191505060405180910390fd5b3373ffffffffffffffffffffffffffffffffffffffff16ff5b600660009054906101000a900473ffffffffffffffffffffffffffffffffffffffff1681565b6000806000806000806001600960003373ffffffffffffffffffffffffffffffffffffffff1673ffffffffffffffffffffffffffffffffffffffff16815260200190815260200160002060006001815260200190815260200160002060009054906101000a900460ff16600960003373ffffffffffffffffffffffffffffffffffffffff1673ffffffffffffffffffffffffffffffffffffffff16815260200190815260200160002060006002815260200190815260200160002060009054906101000a900460ff16600960003373ffffffffffffffffffffffffffffffffffffffff1673ffffffffffffffffffffffffffffffffffffffff16815260200190815260200160002060006003815260200190815260200160002060009054906101000a900460ff16600960003373ffffffffffffffffffffffffffffffffffffffff1673ffffffffffffffffffffffffffffffffffffffff16815260200190815260200160002060006004815260200190815260200160002060009054906101000a900460ff16600960003373ffffffffffffffffffffffffffffffffffffffff1673ffffffffffffffffffffffffffffffffffffffff16815260200190815260200160002060006005815260200190815260200160002060009054906101000a900460ff16955095509550955095509550909192939495565b6002543410151515610e08576040517f08c379a00000000000000000000000000000000000000000000000000000000081526004018080602001828103825260188152602001807f796f75206d7573742070617920666f7220706c6179696e67000000000000000081525060200191505060405180910390fd5b600254341115610e5e573373ffffffffffffffffffffffffffffffffffffffff166108fc60025434039081150290604051600060405180830381858888f19350505050158015610e5c573d6000803e3d6000fd5b505b6001600860003373ffffffffffffffffffffffffffffffffffffffff1673ffffffffffffffffffffffffffffffffffffffff16815260200190815260200160002060006101000a81548160ff021916908315150217905550565b60045481565b60005481565b8060038190555050565b60086020528060005260406000206000915054906101000a900460ff1681565b60096020528160005260406000206020528060005260406000206000915091509054906101000a900460ff1681565b600860003373ffffffffffffffffffffffffffffffffffffffff1673ffffffffffffffffffffffffffffffffffffffff16815260200190815260200160002060009054906101000a900460ff161515610fde576040517f08c379a00000000000000000000000000000000000000000000000000000000081526004018080602001828103825260168152602001807f706c61796572206d75737420626520696e2067616d650000000000000000000081525060200191505060405180910390fd5b6000600860003373ffffffffffffffffffffffffffffffffffffffff1673ffffffffffffffffffffffffffffffffffffffff16815260200190815260200160002060006101000a81548160ff0219169083151502179055506001548110151561108f573373ffffffffffffffffffffffffffffffffffffffff166108fc6004549081150290604051600060405180830381858888f19350505050158015611089573d6000803e3d6000fd5b506110e5565b600054811015156110e4573373ffffffffffffffffffffffffffffffffffffffff166108fc6003549081150290604051600060405180830381858888f193505050501580156110e2573d6000803e3d6000fd5b505b5b50565b60025481565b8060058190555050565b60035481565b60078181548110151561110d57fe5b9060005260206000200154341015151561118f576040517f08c379a00000000000000000000000000000000000000000000000000000000081526004018080602001828103825260138152602001807f76616c7565206973206e6f7420656e6f7567680000000000000000000000000081525060200191505060405180910390fd5b6007805490508110151561120b576040517f08c379a000000000000000000000000000000000000000000000000000000000815260040180806020018281038252600e8152602001807f696e76616c69642062697264496400000000000000000000000000000000000081525060200191505060405180910390fd5b6001600960003373ffffffffffffffffffffffffffffffffffffffff1673ffffffffffffffffffffffffffffffffffffffff168152602001908152602001600020600083815260200190815260200160002060006101000a81548160ff02191690831515021790555050565b6000600860003373ffffffffffffffffffffffffffffffffffffffff1673ffffffffffffffffffffffffffffffffffffffff16815260200190815260200160002060006101000a81548160ff02191690831515021790555056fea165627a7a723058201e5382ef8462aa53f5012f6c0fe352a14de5a17efd65bcb821a703ccb63bb2330029",
  "source": "pragma solidity ^0.5.0;\n\ncontract Flappy2 {\n    uint public silverScore = 10;\n    uint public goldScore = 40;\n    uint public fee = 1 finney;\n    uint public silverPrize = 1 finney;\n    uint public goldPrize = 5 finney;\n    uint public newRecordPrize = 10 finney;\n    address public owner;\n\n    uint[] public price = [0, 10 finney, 30 finney, 40 finney, 50 finney, 1 ether];\n    mapping (address => bool) public isPlaying;\n\n    mapping (address => mapping (uint => bool)) public ownedBirds;\n    mapping (address => uint) public usingBird;\n\n    modifier onlyOwner() {\n        require(msg.sender == owner, 'only contract owner can peform this');\n        _;\n    }\n\n    constructor () public {\n        owner = msg.sender;\n    }\n\n    function setSilverPrize(uint prize)\n        public\n    {\n        silverPrize = prize;\n    }\n\n    function setGoldPrize(uint prize)\n        public\n    {\n        goldPrize = prize;\n    }\n\n    function setNewRecordPrize(uint prize)\n        public\n    {\n        newRecordPrize = prize;\n    }\n\n    function getUsingBird()\n        public\n        view\n        returns (uint)\n    {\n        return usingBird[msg.sender];\n    }\n\n    function useBird(uint birdId)\n        public\n    {\n        require(birdId < price.length, 'invalid birdId');\n        require(ownedBirds[msg.sender][birdId] || birdId == 0, 'this bird is not yours');\n        usingBird[msg.sender] = birdId;\n    }\n\n    function play()\n        public\n        payable\n    {\n        // require(!isPlaying[msg.sender], 'player must not in game');\n        require(msg.value >= fee, 'you must pay for playing');\n        if (msg.value > fee) {\n            msg.sender.transfer(msg.value - fee);\n        }\n        isPlaying[msg.sender] = true;\n    }\n\n    function endGame(uint score)\n        public\n    {\n        require(isPlaying[msg.sender], 'player must be in game');\n        isPlaying[msg.sender] = false;\n        if (score >= goldScore) {\n            msg.sender.transfer(goldPrize);\n        } else if (score >= silverScore) {\n            msg.sender.transfer(silverPrize);\n        }\n    }\n\n    function quit()\n        public\n    {\n        isPlaying[msg.sender] = false;\n    }\n\n    function purchase(uint birdId)\n        public\n        payable\n    {\n        require(msg.value >= price[birdId], 'value is not enough');\n        require(birdId < price.length, 'invalid birdId');\n       ownedBirds[msg.sender][birdId] = true;\n    }\n\n    function getMyBirds() public view returns (bool, bool, bool, bool, bool, bool)\n    {\n        return (true, ownedBirds[msg.sender][1], ownedBirds[msg.sender][2], ownedBirds[msg.sender][3], ownedBirds[msg.sender][4], ownedBirds[msg.sender][5]);\n    }\n\n    function withdrawal(uint amount)\n        public\n        onlyOwner\n    {\n        require(amount < address(this).balance, 'amount must be less than contract balance');\n        selfdestruct(msg.sender);\n    }\n\n    function destroy()\n        public\n        onlyOwner\n    {\n        selfdestruct(msg.sender);\n    }\n}",
  "sourcePath": "/Users/dotrungkien/hackathon/Etherbird/contracts/contracts/Flappy2.sol",
  "compiler": {
    "name": "solc",
    "version": "0.5.0+commit.1d4f565a.Emscripten.clang"
  },
  "schemaVersion": "3.0.2",
  "updatedAt": "2019-11-20T15:42:08.216Z",
  "devdoc": {
    "methods": {}
  },
  "userdoc": {
    "methods": {}
  }
}